:1000000002088A12004C20900F7F147E0012002CF0
:100010007F011200603090FD2091EB7F147E001272
:10002000002CE4FF1200602091DC80FBE4FDFCC3A7
:10003000ED9FEC9E5015E4FBFA0BBB00010AEB644C
:10004000714A70F50DBD00010C80E422C29FD29E62
:1000500053890F438920758DFDD28ED299D29C226F
:080060003099FDC2998F99222D
:10080000BB010CE58229F582E5833AF583E02250AD
:1008100006E92582F8E622BBFE06E92582F8E222F7
:0D082000E58229F582E5833AF583E4932211
:0C088A00787FE4F6D8FD758107020003BA
:00000001FF
